:100000004BC0CCC162C061C060C05FC05EC05DC09B
:100010005CC05BC05AC041C358C057C056C055C031
:1000200054C053C072C3040309040E036F003700A9
:100030006F002E00640065001603660061006E000C
:1000400063006F006E00740072006F006C0012019C
:10005000100100000008C016DF05000101020001C8
:1000600009022200010100801409040000010300BC
:100070000000092101010001221600070581030883
:1000800000640600FF0901A101150026FF007508A4
:1000900095010900B20201C011241FBECFEDCDBFF2
:1000A00010E0A0E6B0E0ECEEF7E002C005900D92A3
:1000B000A236B107D9F710E0A2E6B0E001C01D9268
:1000C000A73AB107E1F77AD38FC39ACF85B7826099
:1000D00085BF8BB780648BBF8BE4809375008AE506
:1000E0008093740008951F93CF93DF9360918500F0
:1000F000635067FDBDC080918200CCE0D0E0C81B9A
:10010000D109C757DF4F809181008D3209F09EC021
:10011000683009F0ABC083EC809369008AE5809376
:100120006000109262008881807639F0CE018ED214
:10013000282F8F3F09F479C07FC09A8110927200F6
:100140008981882321F41092730022E067C08530F2
:1001500019F49093860061C0863009F04AC08B8103
:10016000813041F48EE490E090938400809383008A
:1001700022E13BC0823041F480E690E0909384001D
:100180008093830022E231C08330D1F48A818823B6
:1001900041F486E290E0909384008093830024E011
:1001A00024C0813041F48AE290E0909384008093EF
:1001B00083002EE01AC08230B9F488E390E00EC0CC
:1001C000813241F482E790E0909384008093830031
:1001D00029E00BC0823241F482E890E090938400E1
:1001E0008093830026E101C020E080E480936200D8
:1001F00023C0883021F421E088E890E011C08930E4
:1002000019F49093880009C08A3011F421E006C0E7
:100210008B3019F48BE48093750020E082E790E046
:10022000909384008093830007C0888187FD2E818E
:1002300080E88093620006C08F81882319F48E8144
:10024000821708F0822F8093610010C080916200B5
:1002500087FF0CC0CE01EDD18F3F21F48EE180935A
:10026000600004C0882311F0109261001092850094
:100270008091600084FF49C0809161008F3F09F444
:1002800044C0182F893008F018E0811B809361006A
:100290008091690098E8892780936900112341F1D2
:1002A00020918300309184008091620086FF0DC010
:1002B000AAE6B0E080E090E0F901E80FF91FE491D0
:1002C000ED9301961817C1F708C0912FD901EAE6FE
:1002D000F0E08D9181939150E1F71150812F90E0E2
:1002E0001F5F0196820F931F909384008093830079
:1002F0008AE690E0612F4ED0612F6C5F6C3019F070
:100300008FEF809361006093600094E180B384710B
:1003100031F49150D9F71092860010928000DF914D
:10032000CF911F9108951F93DC01162F80917400C7
:1003300084FF07C08091750098E889278093750035
:1003400003C08AE580937400912FE6E7F0E08D9179
:10035000819391501916DCF386E790E0612F1AD053
:100360001C5F109374001F910895A82FB92F80E08F
:1003700090E041E050EA609530E009C02D9182277D
:100380009795879510F084279527305EC8F36F5FA7
:10039000A8F30895EADF8D939D930895CF93CFB787
:1003A000CF93C395849BE9F7849B09C0849B07C0C6
:1003B000849B05C0849B03C0849B01C0A3C0DF93C2
:1003C000C0918200DD27C757DF4F849B02C0DF91B9
:1003D000EBCF2F930F931F9300B32FEF04FB20F964
:1003E0004F933F9310B34FEF012704FB21F93BE0FC
:1003F00031C04E7F012F10B3216028C0102F4D7FD8
:100400002260000000B329C04B7F2460012F000050
:1004100010B32BC010B3477F28602AC04F7E00B3B3
:1004200020612CC04F7D10B320622FC04F7B00B3E2
:10043000206432C0422700B349934FEF00001027D9
:1004400014FB20F910B31471C9F1297F91F201272F
:1004500004FB21F900B3237F89F2315058F11027B2
:1004600014FB22F910B3277E79F2012704FB23F94C
:100470002F7C81F200B3102714FB24F92F7971F23D
:1004800000C010B3012704FB25F92F7359F200C0F7
:1004900000B3102714FB26F9223040F200C010B33D
:1004A000012704FB27F9243028F64F77206810B382
:1004B0000000F9CF10E41ABF002719C03B50319556
:1004C000C31BD04010E41ABF0881033CF9F00B3481
:1004D000E9F0209180001981110F1213EDCF4A81AC
:1004E000441F093641F10D3211F0013E29F7009306
:1004F00087003F914F911F910F912F91DF91CAB7C4
:10050000C6FD4FCFCF91CFBFCF91189520918700D7
:10051000222379F310918500112369F534306AF1B3
:100520003093850020938100109182003BE0311BC5
:100530003093820022C0009185000130E4F40AE586
:100540004F7049F43091600034FD19C00093600091
:10055000C9E6D0E018C03091740034FD10C000939B
:100560007400C5E7D0E00FC02795A8F45150A9F456
:10057000220F0000F9CF4AE503C042ED01C0432F2E
:10058000C4E1D0E032E011B31461949A11BB02B31C
:1005900020E414E15F93012756E002BB279520F485
:1005A000515021F4220FF9CF012756E000003B5AA9
:1005B00002BBD0F2279528F4515029F4220F0000F5
:1005C000F9CF012756E0279502BB20F4515021F4C2
:1005D000220FF9CF012756E02991332302BB21F6E0
:1005E0000B7E10918600110FC651D04002BB11F056
:1005F0001093800010E41ABF006111B31B7E402FDE
:100600004B7E5F9100C000C002BB11BB42BB71CFEB
:1006100081EA80BF8FBD81E083BF8EBD8D9A87B395
:100620008C6187BB089580EF8CBF86BF88BD8ABD73
:100630000895FC011092640080818CBF818186BF87
:10064000828188BD83818ABD81E00895FC0180811B
:100650008076803401F58181813011F48FEF089527
:10066000833019F48FE990E010C08230A1F48CB788
:100670008093650086B78093660088B58093670095
:100680008AB58093680085E690E09093840080931B
:10069000830084E0089580E008951F920F920FB6C2
:1006A0000F9211242F938F939F9386B390916300A1
:1006B0009095982380936300892F8695817020916F
:1006C000A300820F8093A300892F81702091A40042
:1006D000820F8093A400892F8295869586958170DC
:1006E0002091A500820F8093A50092959695917018
:1006F0008091A600980F9093A6009F918F912F91C3
:100700000F900FBE0F901F9018951F920F920FB66B
:100710000F9211248F939F93AF93BF938091A30067
:100720009091A400A091A500B091A60080939F0095
:100730009093A000A093A100B093A2001092A300F8
:100740001092A4001092A5001092A600809164005F
:100750008F5F80936400813838F080EF8CBF86BF54
:1007600088BD8ABD10926400BF91AF919F918F9117
:100770000F900FBE0F901F90189581B5806181BDBD
:1007800086E481BD83E680BD8BB780628BBF88B372
:10079000836688BB10929F001092A0001092A10067
:1007A0001092A2001092A3001092A4001092A50033
:1007B0001092A60086B380936300089587DC8C9A1C
:1007C00020E048EB5BE003C0CA010197F1F721503C
:1007D000D9F78C981DDFD1DF80EF8CBF86BF88BD35
:0C07E0008ABD789480DCFECFF894FFCF37
:0207EC005AFFB2
:00000001FF
